{
  "contractName": "Election",
  "abi": [
    {
      "constant": true,
      "inputs": [
        {
          "name": "",
          "type": "uint256"
        }
      ],
      "name": "messanges",
      "outputs": [
        {
          "name": "idMessage",
          "type": "uint256"
        },
        {
          "name": "text",
          "type": "string"
        },
        {
          "name": "userFrom",
          "type": "uint256"
        },
        {
          "name": "userTo",
          "type": "uint256"
        }
      ],
      "payable": false,
      "stateMutability": "view",
      "type": "function"
    },
    {
      "constant": true,
      "inputs": [
        {
          "name": "",
          "type": "uint256"
        }
      ],
      "name": "users",
      "outputs": [
        {
          "name": "id",
          "type": "uint256"
        },
        {
          "name": "name",
          "type": "string"
        },
        {
          "name": "countMessages",
          "type": "uint256"
        }
      ],
      "payable": false,
      "stateMutability": "view",
      "type": "function"
    },
    {
      "constant": true,
      "inputs": [],
      "name": "usersCount",
      "outputs": [
        {
          "name": "",
          "type": "uint256"
        }
      ],
      "payable": false,
      "stateMutability": "view",
      "type": "function"
    },
    {
      "constant": true,
      "inputs": [],
      "name": "countMessages",
      "outputs": [
        {
          "name": "",
          "type": "uint256"
        }
      ],
      "payable": false,
      "stateMutability": "view",
      "type": "function"
    },
    {
      "inputs": [],
      "payable": false,
      "stateMutability": "nonpayable",
      "type": "constructor"
    },
    {
      "constant": false,
      "inputs": [
        {
          "name": "_userFrom",
          "type": "uint256"
        },
        {
          "name": "_userTo",
          "type": "uint256"
        },
        {
          "name": "_message",
          "type": "string"
        }
      ],
      "name": "sendMessage",
      "outputs": [],
      "payable": false,
      "stateMutability": "nonpayable",
      "type": "function"
    }
  ],
  "bytecode": "0x60806040526000600255600060035534801561001a57600080fd5b5061005f6040518060400160405280600181526020017f31000000000000000000000000000000000000000000000000000000000000008152506100a860201b60201c565b6100a36040518060400160405280600181526020017f32000000000000000000000000000000000000000000000000000000000000008152506100a860201b60201c565b6101c9565b600260008154809291906001019190505550604051806060016040528060025481526020018281526020016000815250600160006002548152602001908152602001600020600082015181600001556020820151816001019080519060200190610113929190610124565b506040820151816002015590505050565b828054600181600116156101000203166002900490600052602060002090601f016020900481019282601f1061016557805160ff1916838001178555610193565b82800160010185558215610193579182015b82811115610192578251825591602001919060010190610177565b5b5090506101a091906101a4565b5090565b6101c691905b808211156101c25760008160009055506001016101aa565b5090565b90565b610600806101d86000396000f3fe608060405234801561001057600080fd5b50600436106100575760003560e01c806307d13fe31461005c578063365b98b21461011857806339561dba146101cd5780636ba13a821461029c5780637f75a60a146102ba575b600080fd5b6100886004803603602081101561007257600080fd5b81019080803590602001909291905050506102d8565b6040518085815260200180602001848152602001838152602001828103825285818151815260200191508051906020019080838360005b838110156100da5780820151818401526020810190506100bf565b50505050905090810190601f1680156101075780820380516001836020036101000a031916815260200191505b509550505050505060405180910390f35b6101446004803603602081101561012e57600080fd5b81019080803590602001909291905050506103a0565b6040518084815260200180602001838152602001828103825284818151815260200191508051906020019080838360005b83811015610190578082015181840152602081019050610175565b50505050905090810190601f1680156101bd5780820380516001836020036101000a031916815260200191505b5094505050505060405180910390f35b61029a600480360360608110156101e357600080fd5b8101908080359060200190929190803590602001909291908035906020019064010000000081111561021457600080fd5b82018360208201111561022657600080fd5b8035906020019184600183028401116401000000008311171561024857600080fd5b91908080601f016020809104026020016040519081016040528093929190818152602001838380828437600081840152601f19601f820116905080830192505050505050509192919290505050610462565b005b6102a4610523565b6040518082815260200191505060405180910390f35b6102c2610529565b6040518082815260200191505060405180910390f35b6000602052806000526040600020600091509050806000015490806001018054600181600116156101000203166002900480601f01602080910402602001604051908101604052809291908181526020018280546001816001161561010002031660029004801561038a5780601f1061035f5761010080835404028352916020019161038a565b820191906000526020600020905b81548152906001019060200180831161036d57829003601f168201915b5050505050908060020154908060030154905084565b6001602052806000526040600020600091509050806000015490806001018054600181600116156101000203166002900480601f0160208091040260200160405190810160405280929190818152602001828054600181600116156101000203166002900480156104525780601f1061042757610100808354040283529160200191610452565b820191906000526020600020905b81548152906001019060200180831161043557829003601f168201915b5050505050908060020154905083565b60008311801561047457506002548311155b80156104805750600082115b801561048e57506002548211155b61049757600080fd5b6003600081548092919060010191905055506040518060800160405280600354815260200182815260200184815260200183815250600080600354815260200190815260200160002060008201518160000155602082015181600101908051906020019061050692919061052f565b506040820151816002015560608201518160030155905050505050565b60025481565b60035481565b828054600181600116156101000203166002900490600052602060002090601f016020900481019282601f1061057057805160ff191683800117855561059e565b8280016001018555821561059e579182015b8281111561059d578251825591602001919060010190610582565b5b5090506105ab91906105af565b5090565b6105d191905b808211156105cd5760008160009055506001016105b5565b5090565b9056fea165627a7a72305820c8afc0baa4218f5f4ac231ae69407a743a7526916f7d18d21b658fc29a3e4b3b0029",
  "source": "pragma solidity 0.5.7;\n\ncontract Election {\n    \n    // Model a Messege \n    struct Messege{\n        uint idMessage;\n        string text;\n        uint userFrom;\n        uint userTo;\n        \n    }\n    mapping(uint => Messege) public messanges;\n    // Model a User\n    struct User {\n        uint id;\n        string name;\n        uint countMessages;\n    }\n\n    // Read/write users\n    mapping(uint => User) public users;\n    \n\n    // Store Users Count\n    uint public usersCount=0;\n    uint public countMessages=0;\n    constructor () public {\n        //set default users\n        addUser('1');\n        addUser('2');\n    }\n\n    function addUser (string memory _name) private {\n        usersCount++;\n        users[usersCount]=User(usersCount, _name, 0);\n        \n    }\n\n    function sendMessage (uint _userFrom, uint _userTo, string memory _message) public {\n        require(\n            _userFrom > 0 &&\n            _userFrom <= usersCount &&\n            _userTo > 0 &&\n            _userTo <= usersCount);\n            countMessages++;\n            messanges[countMessages]=Messege(countMessages, _message, _userFrom, _userTo);\n        \n    }\n}",
  "sourcePath": "/home/artem/Рабочий стол/Messenger/contracts/Election.sol",
  "compiler": {
    "name": "solc",
    "version": "0.5.7+commit.6da8b019.Emscripten.clang"
  },
  "schemaVersion": "3.1.0",
  "updatedAt": "2022-10-22T15:33:38.532Z",
  "devdoc": {
    "methods": {}
  },
  "userdoc": {
    "methods": {}
  }
}