{
  "contractName": "Election",
  "abi": [
    {
      "constant": true,
      "inputs": [
        {
          "name": "",
          "type": "uint256"
        }
      ],
      "name": "messanges",
      "outputs": [
        {
          "name": "idMessage",
          "type": "uint256"
        },
        {
          "name": "text",
          "type": "string"
        },
        {
          "name": "userFrom",
          "type": "uint256"
        },
        {
          "name": "userTo",
          "type": "uint256"
        }
      ],
      "payable": false,
      "stateMutability": "view",
      "type": "function"
    },
    {
      "constant": true,
      "inputs": [
        {
          "name": "",
          "type": "uint256"
        }
      ],
      "name": "users",
      "outputs": [
        {
          "name": "id",
          "type": "uint256"
        },
        {
          "name": "name",
          "type": "string"
        }
      ],
      "payable": false,
      "stateMutability": "view",
      "type": "function"
    },
    {
      "constant": true,
      "inputs": [],
      "name": "usersCount",
      "outputs": [
        {
          "name": "",
          "type": "uint256"
        }
      ],
      "payable": false,
      "stateMutability": "view",
      "type": "function"
    },
    {
      "constant": true,
      "inputs": [],
      "name": "countMessages",
      "outputs": [
        {
          "name": "",
          "type": "uint256"
        }
      ],
      "payable": false,
      "stateMutability": "view",
      "type": "function"
    },
    {
      "inputs": [],
      "payable": false,
      "stateMutability": "nonpayable",
      "type": "constructor"
    },
    {
      "constant": false,
      "inputs": [
        {
          "name": "_name",
          "type": "string"
        }
      ],
      "name": "addUser",
      "outputs": [],
      "payable": false,
      "stateMutability": "nonpayable",
      "type": "function"
    },
    {
      "constant": false,
      "inputs": [
        {
          "components": [
            {
              "name": "id",
              "type": "uint256"
            },
            {
              "name": "name",
              "type": "string"
            }
          ],
          "name": "_userFrom",
          "type": "tuple"
        },
        {
          "components": [
            {
              "name": "id",
              "type": "uint256"
            },
            {
              "name": "name",
              "type": "string"
            }
          ],
          "name": "_userTo",
          "type": "tuple"
        },
        {
          "name": "_message",
          "type": "string"
        }
      ],
      "name": "sendMessage",
      "outputs": [],
      "payable": false,
      "stateMutability": "nonpayable",
      "type": "function"
    }
  ],
  "bytecode": "0x60806040526000600255600060035534801561001a57600080fd5b5061005f6040518060400160405280600181526020017f31000000000000000000000000000000000000000000000000000000000000008152506100a860201b60201c565b6100a36040518060400160405280600181526020017f32000000000000000000000000000000000000000000000000000000000000008152506100a860201b60201c565b6101b8565b600260008154809291906001019190505550604051806040016040528060025481526020018281525060016000600254815260200190815260200160002060008201518160000155602082015181600101908051906020019061010c929190610113565b5090505050565b828054600181600116156101000203166002900490600052602060002090601f016020900481019282601f1061015457805160ff1916838001178555610182565b82800160010185558215610182579182015b82811115610181578251825591602001919060010190610166565b5b50905061018f9190610193565b5090565b6101b591905b808211156101b1576000816000905550600101610199565b5090565b90565b6108f6806101c76000396000f3fe608060405234801561001057600080fd5b50600436106100625760003560e01c806307d13fe31461006757806318b8275a1461009a5780631f94c5b9146100b6578063365b98b2146100d25780636ba13a82146101035780637f75a60a14610121575b600080fd5b610081600480360361007c91908101906106ac565b61013f565b6040516100919493929190610768565b60405180910390f35b6100b460048036036100af91908101906105d4565b610207565b005b6100d060048036036100cb9190810190610615565b610272565b005b6100ec60048036036100e791908101906106ac565b610347565b6040516100fa929190610738565b60405180910390f35b61010b610403565b604051610118919061071d565b60405180910390f35b610129610409565b604051610136919061071d565b60405180910390f35b6000602052806000526040600020600091509050806000015490806001018054600181600116156101000203166002900480601f0160208091040260200160405190810160405280929190818152602001828054600181600116156101000203166002900480156101f15780601f106101c6576101008083540402835291602001916101f1565b820191906000526020600020905b8154815290600101906020018083116101d457829003601f168201915b5050505050908060020154908060030154905084565b600260008154809291906001019190505550604051806040016040528060025481526020018281525060016000600254815260200190815260200160002060008201518160000155602082015181600101908051906020019061026b92919061040f565b5090505050565b60008360000151905060008360000151905060008211801561029657506002548211155b80156102a25750600081115b80156102b057506002548111155b6102b957600080fd5b6003600081548092919060010191905055506040518060800160405280600354815260200184815260200183815260200182815250600080600354815260200190815260200160002060008201518160000155602082015181600101908051906020019061032892919061040f565b5060408201518160020155606082015181600301559050505050505050565b6001602052806000526040600020600091509050806000015490806001018054600181600116156101000203166002900480601f0160208091040260200160405190810160405280929190818152602001828054600181600116156101000203166002900480156103f95780601f106103ce576101008083540402835291602001916103f9565b820191906000526020600020905b8154815290600101906020018083116103dc57829003601f168201915b5050505050905082565b60025481565b60035481565b828054600181600116156101000203166002900490600052602060002090601f016020900481019282601f1061045057805160ff191683800117855561047e565b8280016001018555821561047e579182015b8281111561047d578251825591602001919060010190610462565b5b50905061048b919061048f565b5090565b6104b191905b808211156104ad576000816000905550600101610495565b5090565b90565b600082601f8301126104c557600080fd5b81356104d86104d3826107e1565b6107b4565b915080825260208301602083018583830111156104f457600080fd5b6104ff838284610869565b50505092915050565b600082601f83011261051957600080fd5b813561052c6105278261080d565b6107b4565b9150808252602083016020830185838301111561054857600080fd5b610553838284610869565b50505092915050565b60006040828403121561056e57600080fd5b61057860406107b4565b90506000610588848285016105c0565b600083015250602082013567ffffffffffffffff8111156105a857600080fd5b6105b4848285016104b4565b60208301525092915050565b60006105cc823561085f565b905092915050565b6000602082840312156105e657600080fd5b600082013567ffffffffffffffff81111561060057600080fd5b61060c84828501610508565b91505092915050565b60008060006060848603121561062a57600080fd5b600084013567ffffffffffffffff81111561064457600080fd5b6106508682870161055c565b935050602084013567ffffffffffffffff81111561066d57600080fd5b6106798682870161055c565b925050604084013567ffffffffffffffff81111561069657600080fd5b6106a286828701610508565b9150509250925092565b6000602082840312156106be57600080fd5b60006106cc848285016105c0565b91505092915050565b60006106e082610839565b6106ea8185610844565b93506106fa818560208601610878565b610703816108ab565b840191505092915050565b61071781610855565b82525050565b6000602082019050610732600083018461070e565b92915050565b600060408201905061074d600083018561070e565b818103602083015261075f81846106d5565b90509392505050565b600060808201905061077d600083018761070e565b818103602083015261078f81866106d5565b905061079e604083018561070e565b6107ab606083018461070e565b95945050505050565b6000604051905081810181811067ffffffffffffffff821117156107d757600080fd5b8060405250919050565b600067ffffffffffffffff8211156107f857600080fd5b601f19601f8301169050602081019050919050565b600067ffffffffffffffff82111561082457600080fd5b601f19601f8301169050602081019050919050565b600081519050919050565b600082825260208201905092915050565b6000819050919050565b6000819050919050565b82818337600083830152505050565b60005b8381101561089657808201518184015260208101905061087b565b838111156108a5576000848401525b50505050565b6000601f19601f830116905091905056fea265627a7a72305820b601d2345ba8dd934d518a0415e71672c252af4cd46082142dac1cfa732355ac6c6578706572696d656e74616cf50037",
  "source": "pragma solidity 0.5.7;\npragma experimental ABIEncoderV2;\n\ncontract Election {\n    \n    // Model a Messege \n    struct Messege{\n        uint idMessage;\n        string text;\n        uint userFrom;\n        uint userTo;\n        \n    }\n    mapping(uint => Messege) public messanges;\n    // Model a User\n    struct User {\n        uint id;\n        string name;\n    }\n\n    // Read/write users\n    mapping(uint => User) public users;\n    \n\n    // Store Users Count\n    uint public usersCount=0;\n    uint public countMessages=0;\n    constructor () public {\n        //set default users\n        addUser('1');\n        addUser('2');\n    }\n\n    function addUser (string memory _name) public {\n        usersCount++;\n        users[usersCount]=User(usersCount, _name);\n        \n    }\n\n    function sendMessage (User memory _userFrom, User memory _userTo, string memory _message) public {\n        uint idUserFrom = _userFrom.id; \n        uint idUserTo = _userTo.id; \n        require(\n            idUserFrom > 0 &&\n            idUserFrom <= usersCount &&\n            idUserTo > 0 &&\n            idUserTo <= usersCount);\n            countMessages++;\n            messanges[countMessages]=Messege(countMessages, _message, idUserFrom, idUserTo);\n        \n    }\n}",
  "sourcePath": "/home/artem/Рабочий стол/Messenger/contracts/Election.sol",
  "compiler": {
    "name": "solc",
    "version": "0.5.7+commit.6da8b019.Emscripten.clang"
  },
  "schemaVersion": "3.1.0",
  "updatedAt": "2022-10-22T17:10:30.435Z",
  "devdoc": {
    "methods": {}
  },
  "userdoc": {
    "methods": {}
  }
}